:100000000C945C010C9484010C9484010C94840184
:100010000C9484010C9484010C9484010C9484014C
:100020000C9484010C9484010C9484010C9484013C
:100030000C9484010C949D130C9484010C94840101
:100040000C94FB120C9484010C946B130C944513C8
:100050000C9484010C9484010C9484010C9484010C
:100060000C9484010C9484015031302D3220436F64
:100070006E74726F6C2064652050756572746120B7
:10008000476172616765005031302D3120436F6EDA
:1000900074726F6C206465207065727369616E6143
:1000A00073005030392053656C656363696F6E610E
:1000B0006461202D2D3E2053656E736F7265732031
:1000C000416E616CF36769636F732028416C6C2922
:1000D000005030372053656C656363696F6E6164EF
:1000E00061202D2D3E2053656E736F72204D6F760B
:1000F000696D69656E746F20285049522900503629
:1001000020494E544552525550544F522053656C1D
:10011000656363696F6E61646F00503520494E54AA
:100120004552525550544F522053656C6563636974
:100130006F6E61646F00503420434F4E4D555441F3
:10014000444F522053656C656363696F6E61646FE1
:1001500000503420494E544552525550544F52206D
:1001600053656C656363696F6E61646F0050342022
:1001700050554C5341444F5245532053656C656371
:1001800063696F6E61646F2000503320434F4E4DA2
:10019000555441444F522053656C656363696F6EDB
:1001A00061646F00503120434F4E4D555441444FD0
:1001B000522053656C656363696F6E61646F0050B4
:1001C0003120494E544552525550544F5220536598
:1001D0006C656363696F6E61646F005031205055C8
:1001E0004C5341444F5245532053656C65636369DA
:1001F0006F6E61646F004F4646004F4E00202D2DFC
:100200003E2050756C7361646F00202D2D3E20538D
:100210006F6C7461646F004F4646004F4E00436F31
:100220006E6D757461646F72202D2D3E20004153F8
:10023000594E57414954205445524D494E41444F1F
:100240000050313020436F6E74726F6C20646520F3
:100250005065727369616E617300000000002400D4
:1002600027002A0000000000250028002B000000C5
:1002700000002300260029000404040404040404EC
:100280000202020202020303030303030102040841
:1002900010204080010204081020010204081020F0
:1002A0000000000800020100000304070000000035
:1002B000000000007415001911241FBECFEFD8E014
:1002C000DEBFCDBF26E0ACE3B2E001C01D92AC358D
:1002D000B207E1F712E0A0E0B1E0E0E3F0E402C031
:1002E00005900D92AC33B107D9F711E0CBE5D1E021
:1002F00004C02197FE010E94481BCA35D107C9F7E7
:100300000E9431170C940B200C9400008F929F9246
:10031000AF92BF92CF92DF92EF92FF92CF93DF9393
:10032000EC01E881F98161817281072E000C880B54
:10033000990B0E9412192FEF3FEF4FE95BE30E94E8
:100340004D1920E030E040E05FE30E94721A20E0A7
:1003500030E048EC52E40E944D194B015C010E94D0
:10036000DF1A6B01072E000C880B990B0E941219E3
:100370009B01AC01C501B4010E94721A20E030E07B
:1003800048EC52E40E944D190E94DF1A6233710555
:100390005CF08FEFC81AD80AB601DD0C880B990BF8
:1003A0000E9412194B015C010C80DD81C02DC5013A
:1003B000B4010E94DF1A18826983DF91CF91FF9008
:1003C000EF90DF90CF90BF90AF909F908F90089567
:1003D000833081F028F4813099F08230A9F00895BB
:1003E0008730A9F08830C9F08430B1F48091800062
:1003F0008F7D03C0809180008F7780938000089567
:1004000084B58F7784BD089584B58F7DFBCF8091AF
:10041000B0008F778093B00008958091B0008F7DF9
:10042000F9CF0F931F93CF93DF93FC0125812223F4
:1004300009F455C0EC0186819781009731F001974E
:1004400009F437C090E080E023C0208130E0F9015A
:10045000E056FD4F8491F901E457FD4F0491F901F5
:10046000E858FD4F1491112369F381110E94E801AE
:10047000E12FF0E0EE0FFF1FE259FD4FA591B4917F
:10048000EC910E2331E020E009F430E0832F922F2D
:1004900029813A812817390711F19A838983E889DC
:1004A000F9893097E1F0CE01DF91CF911F910F9143
:1004B000099480818E3008F08E508770806480931C
:1004C0007C0080917A00806480937A0080917A0029
:1004D00086FDFCCF8091780090917900D9CFDF9193
:1004E000CF911F910F910895CF93DF93EC018881F5
:1004F00099810E941102EC81FD81A881B981119638
:100500008D919C91208131812817390751F0918379
:100510008083EE85FF85309721F0CE01DF91CF916A
:100520000994DF91CF9108951F93CF93DF93282FE4
:1005300030E0F901E056FD4F8491F901E457FD4F99
:10054000D491F901E858FD4FC491CC23A9F0162F9E
:1005500081110E94E801EC2FF0E0EE0FFF1FEC5933
:10056000FD4FA591B4918FB7F894EC91111108C08B
:10057000D095DE23DC938FBFDF91CF911F9108953B
:10058000DE2BF8CFCF93DF9390E0FC01E457FD4FD3
:10059000249188589D4FFC0184918823D1F090E0EC
:1005A000880F991FFC01E65AFD4FA591B491FC01FB
:1005B000EC59FD4FC591D49161110EC09FB7F894CD
:1005C0008C91E22FE0958E238C932881E223E8839F
:1005D0009FBFDF91CF9108958FB7F894EC91E22BF4
:1005E000EC938FBFF6CF3FB7F89480918002909143
:1005F0008102A0918202B091830226B5A89B05C01A
:100600002F3F19F00196A11DB11D3FBFBA2FA92F91
:10061000982F8827BC01CD01620F711D811D911D8E
:1006200042E0660F771F881F991F4A95D1F70895FA
:100630008F929F92AF92BF92CF92DF92EF92FF92F2
:100640004B015C010E94F3026B017C010E94F302EA
:100650006C197D098E099F09683E734081059105DB
:10066000A8F321E0821A9108A108B10888EEC80E0B
:1006700083E0D81EE11CF11C81149104A104B10493
:1006800029F7FF90EF90DF90CF90BF90AF909F90B1
:100690008F9008950F931F93CF93DF938C01C62FF4
:1006A00080916103823074F09091C00090649093C7
:1006B000C00061E00E94940261E070E080E090E0A0
:1006C0000E941803902FF8012FEF3FEF8191282708
:1006D00088E0A9014170552736952795452B21F0D3
:1006E00041E0242740EA3427815099F78E2F891B57
:1006F0008C1760F3322723273227F801EC0FF11D06
:100700003083E1E0EC0FE00FF12FF11D2083CE5F8D
:100710008091840290918502D0E0DC01ED91FC9102
:100720000280F381E02DAE01B80109956AE070E026
:1007300080E090E00E9418038091610382303CF0D9
:100740009091C00096FFFCCF60E00E949402CE0121
:10075000DF91CF911F910F9108950F931F93CF9326
:10076000DF93CDB7DEB7C054D1090FB6F894DEBF22
:100770000FBECDBF9091600399838A8381E08B8304
:10078000DB01AA0FBB1FA20FB31FCB0120E0460F56
:10079000572F511D382F361B8417950770F40D9174
:1007A0001D91E1E0F0E0012B09F4E0E001C0EE0F63
:1007B0003A95EAF72E2B0196EDCF2C8364E0CE011B
:1007C00001960E944A03C05CDF4F0FB6F894DEBF6B
:1007D0000FBECDBFDF91CF911F910F910895EF9282
:1007E000FF920F931F93CF93DF93CDB7DEB7C05423
:1007F000D1090FB6F894DEBF0FBECDBF9091600354
:1008000099838A83842F880F8B83CB01880F991F4C
:10081000280F391FDE0111967B0163E070E0CD01E6
:100820004E0D5F2D511D1296E416F50688F4F90160
:10083000108101812E5F3F4F11960C9311971296F4
:100840001C9312976E5F7F4FFFEFEF1AFF0AEBCFFB
:100850000E944A03C05CDF4F0FB6F894DEBF0FBEA4
:10086000CDBFDF91CF911F910F91FF90EF90089531
:100870002FB7F89460917C0270917D0280917E0286
:1008800090917F022FBF0895AF92BF92CF92DF92D7
:10089000EF92FF920F931F93CF93DF936C017B0135
:1008A0008B01040F151FEB015E01AE18BF08C017C6
:1008B000D10759F06991D601ED91FC910190F08139
:1008C000E02DC6010995892B79F7C501DF91CF91FC
:1008D0001F910F91FF90EF90DF90CF90BF90AF905E
:1008E0000895FC01538D448D252F30E0842F90E036
:1008F000821B930B541710F0CF960895019708951B
:10090000FC01918D828D981761F0A28DAE0FBF2FE3
:10091000B11D5D968C91928D9F5F9F73928F90E039
:1009200008958FEF9FEF0895FC01918D828D9817A8
:1009300031F0828DE80FF11D858D90E008958FEFE5
:100940009FEF0895FC01918D228D892F90E0805CAE
:100950009F4F821B91098F739927089583E992E035
:100960000E94A20421E0892B09F420E0822F08953F
:1009700080E090E0892B29F00E94AE0481110C9454
:1009800000000895FC01A48DA80FB92FB11DA35A32
:10099000BF4F2C91848D90E001968F739927848F9F
:1009A000A689B7892C93A089B1898C9183708064C2
:1009B0008C93938D848D981306C00288F389E02D63
:1009C00080818F7D80830895EF92FF920F931F9314
:1009D000CF93DF93EC0181E0888F9B8D8C8D9813F2
:1009E0001AC0E889F989808185FF15C09FB7F894FE
:1009F000EE89FF896083E889F9898081837080644A
:100A000080839FBF81E090E0DF91CF911F910F9194
:100A1000FF90EF900895F62E0B8D10E00F5F1F4FA3
:100A20000F731127E02E8C8D8E110CC00FB607FCB2
:100A3000FACFE889F989808185FFF5CFCE010E9440
:100A4000C204F1CFEB8DEC0FFD2FF11DE35AFF4FE8
:100A5000F0829FB7F8940B8FEA89FB8980818062CE
:100A6000CFCF0F931F93CF93DF938C01D0E0C0E0E3
:100A7000F801EC0FFD1F6491662341F083E992E0D9
:100A80000E94E404892B11F02196F2CFCE01DF9170
:100A9000CF911F910F910895CF93DF93EC01888D33
:100AA0008823B9F0AA89BB89E889F9898C9185FDE9
:100AB00003C0808186FD0DC00FB607FCF7CF8C9177
:100AC00085FFF2CF808185FFEDCFCE010E94C20469
:100AD000E9CFDF91CF9108951F93CF93DF93FC016E
:100AE0002181261731F0162FEC0180810E9494029B
:100AF0001983DF91CF911F91089508950F931F934C
:100B0000CF93DF93EC010E9438040A811B812C8172
:100B10003D81601771078207930738F5009510959E
:100B200020953095600F711F821F931FEE81FF810A
:100B30004081518128EE33E0429F8001439F100D98
:100B4000529F100D112430E020E0601771078207DA
:100B5000930780F019821A821B821C821D8280E01A
:100B6000DF91CF911F910F910895601B710B820B44
:100B7000930BDCCF81E0F4CF2091560330915703E3
:100B8000232B41F5DC01ED91FC910190F081E02DEA
:100B9000A081B18111962D913C9112978089918904
:100BA000892B69F013968D919C918217930781F0A0
:100BB00081E090E090935703809356030895048852
:100BC000F589E02D81E0408151814217530708F4F7
:100BD00080E0089581E008958F929F92AF92BF9236
:100BE000CF92DF92EF92FF921F93CF93DF93EC01AE
:100BF000162FE881F9810190F081E02DC780D08423
:100C0000E184F2840E943804E881F9810190F08146
:100C1000E02D81809280A380B4809B01AC012819D3
:100C200039094A095B09A12F110FBB0B0E944E1B0A
:100C3000C60ED71EE81EF91EC782D086E186F28650
:100C4000C581D681F7FE3BC01782108611861286B9
:100C50002781308541855285A4E6B0E00E94211AA3
:100C60002881398150E040E00E94291BC22FCA012F
:100C7000622F732F25E030E040E050E00E94291BF6
:100C800063307105810591050CF0CB5FC61BD0E088
:100C900080913A0390913B03C817D90721F0D09374
:100CA0003B03C0933A03DF91CF911F91FF90EF90E8
:100CB000DF90CF90BF90AF909F908F900895288144
:100CC00039812C153D0520F6C901B0E0A0E08783ED
:100CD0009087A187B287BCCFEF92FF920F931F93AB
:100CE000CF93DF9300D000D0CDB7DEB78C0186E87C
:100CF00092E09C838B83CE0103969A838983013093
:100D0000110549F130F00230110571F10330110580
:100D100059F4109286028091910290919202813052
:100D2000910589F00297A9F0109392020093910225
:100D30000F900F900F900F90DF91CF911F910F9117
:100D4000FF90EF9008956FEFCE0101960E94EC05A1
:100D5000EBCF61E0F9CF809186026FEF811109C07E
:100D600081E08093860209C0809186028823C1F3C6
:100D700061E0CE0101960E94EC05EB80FC800E94B0
:100D80003804F7016183728383839483CDCF80918C
:100D900046039091470399270E946C068091460371
:100DA0009091470399278130910581F028F0823096
:100DB0009105A9F00397A9F460E086E794E00E940A
:100DC0006C0560E088E794E00C946C0560E088E7CF
:100DD00094E00E946C0561E086E794E0F5CF61E065
:100DE000F6CF08956091460370914703CB01992790
:100DF000E0915E05F0915F0540815181E0916205CF
:100E0000F0916305208131818130910501F178F005
:100E100082309105A9F08330910519F1681779079F
:100E200051F190934703809346030C94C706452BDA
:100E300011F082E090E0232B89F381E090E0EECF87
:100E4000452B61F7232B89F083E090E0E7CF452B1A
:100E500079F451E040E0232B09F450E0852F942FE2
:100E6000DDCF452BD9F6232BC9F690E080E0D9CF12
:100E7000232BA1F6E9CF0895CF93DF93EC010E94D5
:100E800038046A837B838C839D8381E08983188205
:100E9000DF91CF91089580913C0390913D0380357F
:100EA000910580F486E695E00E94110280E895E0C5
:100EB0000E9411028AE995E00E94110284EB95E0FC
:100EC0000C9411028CE794E00E94740284E994E08F
:100ED0000E9474028CEA94E00E94740284EC94E014
:100EE0000E9474028CED94E00E94740284EF94E0FE
:100EF0000E9474028CE095E00E94740284E295E006
:100F00000E9474028CE395E00C947402FB01019042
:100F10000020E9F73197AF01461B570BDC01ED913B
:100F2000FC910280F381E02D0994CF93DF930E941E
:100F30003105EC016CE371E083E992E00E948607E1
:100F40008C0F9D1FDF91CF9108950F931F93CF9327
:100F5000DF93EC010E9486078C016CE371E0CE0107
:100F60000E948607800F911FDF91CF911F910F91F3
:100F700008950F931F93CF93DF938C01EB0183E9C7
:100F800092E00E94A507F80180819181009739F0D5
:100F9000BE01DF91CF911F910F910C94A507DF91B6
:100FA000CF911F910F910895EF92FF920F931F938E
:100FB000CF93DF938C01D62FC0E0D80112968D918C
:100FC0009C911397C8171906E4F41496ED91FC91BF
:100FD000E080F18080E0309759F46FE371E0C80160
:100FE0000E94B9076D2FC7010E946C05CF5FE5CF46
:100FF000C817C1F30280F381E02DE080F1808F5F9C
:10100000F7CFDF91CF911F910F91FF90EF9008954F
:10101000CF93DF93EC014B815C8129813A814217A8
:10102000530771F58EE192E00E94310580917302C1
:1010300090917402892BE9F481E090E0909374021E
:10104000809373028BE192E00E9495078C899D89C1
:1010500018161906ACF461E0809173029091740245
:10106000892B09F460E0CE014296DF91CF910C9478
:10107000D407109274021092730287E192E0E4CFD9
:10108000DF91CF910895CF93DF93EC014E855F857B
:101090006A857B8583E992E00E9444042B813C8130
:1010A00089819A8128173907C1F48AE092E00E9469
:1010B00095078C899D891816190694F461E02B8197
:1010C0003C8189819A812817390709F460E0CE01B3
:1010D0004296DF91CF910C94D4078DEF91E0E7CF4A
:1010E000DF91CF910895CF93DF93DC011496ED91BA
:1010F000FC91C081D181309741F46FE371E00E948F
:10110000B907CE01DF91CF91089580E08617C9F32A
:101110000280F381E02DC081D1818F5FF7CFCF9323
:10112000DF93D0E0C0E08091800390918103C817E5
:10113000D90764F46C2F8EE793E00E947308DC01FA
:101140001E96ED91FC9109952196EDCFDF91CF91FF
:101150000895CF93DF93DC01ED91FC9111970190FD
:10116000F081E02D0088F189E02D309739F0778308
:101170006683CF01DF91CF910C943C071296ED91DD
:10118000FC9180819181FC0122813381121613062A
:1011900064F4EB0160E00E947308DC0150968D91CD
:1011A0009C91FC01D783C683E5CFDF91CF91089551
:1011B0000F931F93CF93DF93CDB7DEB72A970FB668
:1011C000F894DEBF0FBECDBFFC019E838D830091DE
:1011D00046031091470311278689978998878F8343
:1011E000CE0105969A8789879A83898302969C8384
:1011F0008B8390910201933409F45FC0E8F4913439
:1012000069F1923409F445C08091460390914703F7
:101210008017910731F010934703009346030E9413
:10122000C7062A960FB6F894DEBF0FBECDBFDF917A
:10123000CF911F910F910895943409F465C09534AE
:1012400019F7808991890097F9F2FC012181222305
:10125000D1F00E947E058111D7CF15C08089918978
:10126000892B91F20480F581E02D80819181892B79
:1012700031F48091560390915703892B29F21092F3
:1012800057031092560382E48093020102E010E0BB
:10129000BBCF80913A0390913B038436910508F4CB
:1012A000B3CF83E48093020164E171E0CE01019643
:1012B0000E94A90810E000E0A7CFCE0109960E9485
:1012C000BC05882359F0109257031092560364E12D
:1012D00071E0CE0101960E94A90896CFED81FE81B2
:1012E00080899189009709F48FCFFC012181211118
:1012F00006C084E48093020101E010E085CF0E94E3
:101300007E05811181CFF5CFCE0109960E94BC05E3
:10131000882351F0109257031092560385E480936E
:10132000020162E171E0C2CF80913A0390913B03E8
:10133000892B09F069CF81E480930201BBCFCF9361
:10134000DF93DC011496ED91FC91C081D18130973F
:1013500041F46FE371E00E94B907CE01DF91CF91B4
:10136000089580E08617C9F30280F381E02DC081E3
:10137000D1818F5FF7CFDF92EF92FF920F931F9390
:10138000CF93DF938C017B01D0E0C0E0262F21704A
:10139000D22ED80112968D919C91C817D9071CF5B1
:1013A0006C2FC8010E949F09DC011296ED91FC91FF
:1013B0006D2DB2E0EB16F10431F461E02081318152
:1013C000232B09F060E0262F30E040815181421745
:1013D000530739F031832083FC01808191810E9481
:1013E0006C052196D6CFDF91CF911F910F91FF9081
:1013F000EF90DF900895CF93DF93EC01E881F981BE
:10140000AC89BD89418152812D913C9124173507CA
:1014100090F020853185232B59F461E070E0069629
:101420000E94BB09E881F98181E090E09187808783
:10143000DF91CF91089511861086FACFCF93DF9375
:10144000EC01EC89FD8940815181EA89FB89208189
:1014500031812417350774F1E881F9818085918500
:101460008130910541F08230910599F010924B0343
:1014700010924A030BC02181328142175307B4F006
:1014800061E070E0CE0106960E94BB0982E090E028
:101490000DC0418152814217530744F070E060E073
:1014A000CE0106960E94BB0981E090E0E881F981B7
:1014B00091878087DF91CF910895CF93DF93EC01DF
:1014C000E881F98188899989438154812181328118
:1014D0004217530751F00E943C0761E070E0CE01D3
:1014E0000696DF91CF910C94BB09FC01218121115B
:1014F00010C0E889F989808181110FC08EE292E0E5
:101500000E949507E889F98981E0808370E060E0B6
:10151000E6CF0E947E05882361F3DF91CF91089585
:10152000DC01ED91FC91438154812181328142178C
:10153000530729F462E070E006960C94BB09089505
:101540000C94900ACF92DF92EF92FF921F93CF9369
:10155000DF937C01D0E0C0E06C0186E0C80ED11CB6
:10156000D70118968D919C911997C817D907CCF47B
:10157000ED91FC9111E021813281838194812817C2
:10158000390709F410E06C2FC6010E949F09DC01A5
:101590001296ED91FC91812F90E0918380832196AA
:1015A000DFCFDF91CF911F91FF90EF90DF90CF9031
:1015B0000C94F206EF92FF920F931F93CF93DF9359
:1015C000EC017B010E811F8184E090E00E94781B7A
:1015D0009F838E83892B29F462E771E0CE010E94FC
:1015E000B907EE81FF8113821282F182E0828C8141
:1015F0009D81892B71F4FD83EC838A819B81019607
:101600009B838A83DF91CF911F910F91FF90EF9081
:101610000895D8011396FC93EE931297EECFEF92B4
:10162000FF920F931F93CF93DF93EC017B010E8109
:101630001F8184E090E00E94781B9F838E83892B1A
:1016400029F462E771E0CE010E94B907EE81FF81C3
:1016500013821282F182E0828C819D81892B71F448
:10166000FD83EC838A819B8101969B838A83DF9132
:10167000CF911F910F91FF90EF900895D80113968D
:10168000FC93EE931297EECFEF92FF920F931F937E
:10169000CF93DF93EC017B010E811F8184E090E00A
:1016A0000E94781B9F838E83892B29F462E771E067
:1016B000CE010E94B907EE81FF8113821282F1826E
:1016C000E0828C819D81892B71F4FD83EC838A817A
:1016D0009B8101969B838A83DF91CF911F910F910C
:1016E000FF90EF900895D8011396FC93EE93129714
:1016F000EECF0F931F93CF93DF938C01C0917C03A8
:10170000D0917D0384E090E00E94781B90937D034C
:1017100080937C03892B31F462E771E086E793E0E4
:101720000E94B907E0917C03F0917D03138212823D
:101730001183008380917A0390917B03892B91F42C
:10174000F0937B03E0937A0380917803909179037F
:1017500001969093790380937803DF91CF911F9145
:101760000F910895FB83EA83EFCFCF93DF93EC01D2
:101770002B813C8189819A8128173907D1F44E85C4
:101780005F856A857B8583E992E00E94440463EA71
:1017900071E083E992E00E94860788859985892B0C
:1017A000C9F481E090E0998788878AEF91E00E94F0
:1017B00095078C899D89181619068CF461E0888537
:1017C0009985892B09F460E0CE014296DF91CF9193
:1017D0000C94D4071986188686EF91E0E8CFDF9144
:1017E000CF9108950F931F93CF93DF93EC018A85D8
:1017F0009B85009769F0FC01028113810E94141CF3
:101800001B870A8788859985019799878887EFCFF5
:101810001F861E861F8A1E8ADF91CF911F910F910E
:101820000895CF93DF93EC018A509F4F0E94F20BF3
:10183000CE01825F9E4F0E94F20BCE018A5D9E4FC9
:101840000E94F20BCE01825C9E4F0E94F20BCE01F1
:101850008A5A9E4F0E94F20BCE0182599E4F0E94DF
:10186000F20BCE018A579E4F0E94F20BCE018A5492
:101870009E4F0E94F20BDF91CF9108950F931F931B
:10188000CF93DF93EC018E899F89009769F0FC016B
:10189000028113810E94141C1F8B0E8B8C899D89E1
:1018A00001979D8B8C8BEFCF198A188ADF91CF918E
:1018B0001F910F910895CF93DF93EC0102960E9440
:1018C0003E0CCE014C960E943E0CCE01C6960E9464
:1018D0003E0CCE01805B9F4F0E943E0CCE0186598C
:1018E0009F4F0E943E0CCE018C579F4F0E943E0C92
:1018F000CE0182569F4F0E943E0CCE0188549F4FCE
:101900000E943E0CCE018E529F4F0E943E0CDF91F2
:10191000CF9108950F931F93CF93DF93EC010C8128
:101920001D81012B51F08C819D81FC01028113816D
:101930000E94141C1D830C83F4CFDF91CF911F9163
:101940000F910895CF93DF93EC0142960E948A0C89
:101950008A859B85009721F0DF91CF910C94141C10
:10196000DF91CF910895CF93DF93EC018AE191E06D
:1019700099838883CE018E529F4F0E94A20CCE0184
:1019800088549F4F0E94A20CCE0182569F4F0E9406
:10199000A20CCE018C579F4F0E94A20CCE018659FB
:1019A0009F4F0E94A20CCE01805B9F4F0E94A20C11
:1019B000CE01C6960E94A20CCE014C960E94A20CAB
:1019C000CE010296DF91CF910C94A20CCF93DF93BE
:1019D000EC010E94B30CCE01DF91CF910C94141C4A
:1019E000CF93DF93EC0186E391E099838883CE0166
:1019F00084549E4F0E948A0CCE018C559E4F0E94AB
:101A00008A0CCE0184579E4F0E948A0CCE018C58BE
:101A10009E4F0E948A0CCE01845A9E4F0E948A0CCF
:101A2000CE018C5B9E4F0E948A0CCE01845D9E4F3E
:101A30000E948A0CCE018C5E9E4F0E948A0CCE01C1
:101A400084509F4F0E948A0CCE01DF91CF910C945D
:101A5000B30CCF93DF93EC010E94F00CCE01DF9129
:101A6000CF910C94141CEF92FF920F931F93CF937E
:101A7000DF93EC018C819D81892B29F467EB71E068
:101A8000CE010E94B9078C819D81FC0100811181EA
:101A9000E280F3800E94141CFD82EC828A819B818B
:101AA00001979B838A83C801DF91CF911F910F918A
:101AB000FF90EF90089584E695E00E945B0C86E825
:101AC00093E00E94110C8091820390918303892BF3
:101AD00029F08EE793E00E94330DF5CF08951F9310
:101AE000CF93DF93EC01162F0E940B1A181739F0D1
:101AF000612FCE01DF91CF911F910C94131ADF91CA
:101B0000CF911F910895CF93DF93D0E0C0E0C7300D
:101B1000D105C0F4FE01E157F24F0C94481B960D1D
:101B2000A90DB40DC60DD60DE60DE60D61E0809150
:101B3000480390914903892B09F460E080E596E021
:101B40000E946C052196C830D10509F7DF91CF912D
:101B5000089561E080914A0390914B03892B09F429
:101B600060E082E596E0ECCF61E080914C039091DB
:101B70004D03892B09F460E0E091C404F091C504A1
:101B8000658381E090E00E946F0DDCCF61E0809181
:101B90004E0390914F03892B09F460E0E0910C050E
:101BA000F0910D05658384E090E0EDCF61E08091D8
:101BB000500390915103892B09F460E0E0913C05BA
:101BC000F0913D05658389E090E0DDCF80913C0395
:101BD000813A09F0B7CF0E94F206B4CF0C940B1AE9
:101BE0002F923F924F925F926F927F928F929F922D
:101BF000AF92BF92CF92DF92EF92FF920F931F931B
:101C0000CF93DF93CDB7DEB7C456D1090FB6F894A2
:101C1000DEBF0FBECDBF10E000E048E0E42E48E09C
:101C2000F42ECE0101961C0150EAC52E5AE0D52EA5
:101C300069E0462E61E0562E72EA672E7AE0772E32
:101C4000E8ED8E2EE8E09E2E0330110509F4FFC268
:101C50000CF044C00130110509F4E1C20230110555
:101C600009F4EAC260913C0390E080E00E946F0DAD
:101C700080913C0390916402891789F080936402FB
:101C8000833409F45EC108F060C0833109F418C1DF
:101C900080F5813109F4DEC0823109F4F0C00F5FB4
:101CA0001F4F0630110581F6CC59DF4F0FB6F8945F
:101CB000DEBF0FBECDBFDF91CF911F910F91FF907F
:101CC000EF90DF90CF90BF90AF909F908F907F90DC
:101CD0006F905F904F903F902F90089504301105C2
:101CE00009F4C0C20530110509F0BCCF0E94C70637
:101CF000D6CF813409F4F7C008F018C1823379F6E1
:101D000089E891E00E9495070E945B0DF0927705AB
:101D1000E092760560E576E088E795E00E94440B66
:101D2000F0929105E092900560E576E082E995E019
:101D30000E94440BF092AB05E092AA0560E576E0C4
:101D40008CEA95E00E94440BAACF803709F449C180
:101D500048F5843509F428C1823609F0A0CF8EEF0A
:101D600090E00E9495070E945B0D80E9A82E8AE012
:101D7000B82EB0928B04A0928A0468E575E082E8E0
:101D800094E00E940F0BB092A304A092A20464E519
:101D900075E08AE994E00E940F0BB092BB04A09218
:101DA000BA047DCF813A09F499C1823A09F4BBC1E2
:101DB000803909F074CF82EA90E00E9495070E9472
:101DC0005B0D82E493E0909321058093200580E4ED
:101DD00093E090931F0580931E058EE19AE0909307
:101DE0001B0580931A0568E575E082E195E00E9485
:101DF0000F0B84E493E090935105809350058BEF93
:101E000099E090934B0580934A0564E575E082E480
:101E100095E00E940F0BD0928B04C0928A0464E577
:101E200075E082E894E00E940F0BD092A304C09268
:101E3000A20464E575E08AE994E00E940F0BD09259
:101E4000BB04C092BA0464E575E082EB94E00E94A2
:101E50000F0B25CF8BED91E00E9495070E945B0D43
:101E600083E498E0909377058093760590939105AD
:101E7000809390059093AB058093AA0510CF8FEBCC
:101E800091E00E9495070E945B0D85EB9BE090938B
:101E900077058093760510926F0510926E059093EA
:101EA0009105809390051092890510928805909372
:101EB000AB058093AA051092A3051092A205EFCE60
:101EC00084EA91E00E9495070E945B0DF0927705ED
:101ED000E0927605F0929105E0929005F092AB05C4
:101EE000E092AA05DCCE8DE691E00E9495070E9463
:101EF0005B0D33E4A32E38E0B32EB0927705A092A9
:101F0000760560E576E088E795E00E94440BB092A4
:101F10009105A092900562E576E082E995E00E9445
:101F2000440BB092AB05A092AA05B9CE81E591E031
:101F30000E9495070E945B0D25EBA22E2BE0B22E8E
:101F4000DCCF86E391E00E9495070E945B0DF09242
:101F50007705E092760560E576E088E795E00E94F7
:101F6000440B62E576E088E795E00E94440BF0922E
:101F70009105E092900560E576E082E995E00E94A7
:101F8000440B62E576E082E995E00E94440BF09212
:101F9000AB05E092AA0560E576E08CEA95E00E9448
:101FA000440B62E576E0CCCE8AE191E00E94950791
:101FB0000E945B0D90E9A92E9AE0B92EB0928B0495
:101FC000A0928A0464E575E082E894E00E940F0B19
:101FD000B092A304A092A20468E575E08AE994E0B7
:101FE00036CF81ED90E00E94950780915C028111CF
:101FF0000DC0109255021092560210925702109284
:1020000058021092590281E080935C020E945B0D9D
:10201000E091C404F091C50481E0858381E090E003
:1020200090934D0380934C0380913F038F93809155
:102030003E038F9386E292E09F938F933F922F927D
:102040000E946A1DB10183E992E00E94A5078EE318
:1020500093E090935B0280935A0284E592E00E94A1
:102060003C0784E592E09093D5048093D4048DE5F9
:102070009AE09093D3048093D20468E575E08AECEB
:1020800094E00E940F0BD0928B04C0928A0464E506
:1020900075E082E894E00E940F0BD092A304C092F6
:1020A000A20464E575E08AE994E00E940F0BD092E7
:1020B000BB04C092BA0464E575E082EB94E00E9430
:1020C0000F0B64EC74E08EE793E00E94DA0A0F9045
:1020D0000F900F900F900F900F90E1CD87E890E058
:1020E0000E9495070E945B0D1092860250928C020E
:1020F00040928B0210928D0210928E0210928F02EB
:102100001092900270928B0460928A046CE575E0E4
:1021100082E894E00E940F0B7092A3046092A204E4
:1021200060E675E05BCF88E690E00E9495078091BD
:102130004C0281110DC0109245021092460210927D
:102140004702109248021092490281E080934C02AB
:1021500080913C02811113C010926E0210926D02A8
:102160001092700210926F0210927202109271021D
:1021700010926C0210926B0281E080933C020E94EC
:102180005B0D80E091E090934B0280934A0284E4DF
:1021900092E00E943C071092860250928C0240927C
:1021A0008B0210928D0210928E0210928F0210926A
:1021B000900280916F0290917002892B29F08BE63A
:1021C00092E00E94330DF5CF6CE774E08BE692E06D
:1021D0000E94DA0A90928B0480928A0484E492E04E
:1021E00090938D0480938C0484E493E09093510544
:1021F0008093500510924D0510924C0590924B051E
:1022000080924A058BE692E09093530580935205A5
:102210006CE774E08EE793E00E94DA0A40CD6091AB
:102220003F0382E090E00E946F0D60913E0383E0E7
:1022300090E00E946F0D33CD6091410385E090E006
:102240000E946F0D6091400386E090E0F2CF6091B4
:10225000430387E090E00E946F0D6091420388E0A5
:1022600090E0E7CF609145038AE090E00E946F0D17
:10227000609144038BE090E0DCCFCF92DF92EF924D
:10228000FF920F931F93CF93DF93CDB7DEB7C85460
:10229000D1090FB6F894DEBF0FBECDBF8091840286
:1022A00090918502DC01ED91FC910084F185E02D97
:1022B00009958C010E94F30201151105A1F41092F9
:1022C0006A0210926902C85BDF4F0FB6F894DEBF56
:1022D0000FBECDBFDF91CF911F910F91FF90EF9077
:1022E000DF90CF9008952091690230916A02021721
:1022F0001307C9F010936A020093690200917203F8
:10230000109173032091740330917503600F711F56
:10231000821F931F60936502709366028093670229
:1023200090936802D0CF00916502109166022091CF
:10233000670230916802601771078207930718F2ED
:1023400010926A0210926902FE0131967F016F01BC
:1023500010E000E08091840290918502DC01ED9113
:10236000FC910084F185E02D0995892BC1F08091C5
:10237000840290918502DC01ED91FC910284F38549
:10238000E02D0995F60181936F010F5F1F4F003417
:10239000110501F70E94830D0E94F00D94CF0115E5
:1023A000110509F490CF3EEF300FF7018FEF9FEF4B
:1023B0002E2F2E19231788F42191822728E0AC01B3
:1023C0004170552796958795452B21F041E084274C
:1023D00040EA9427215099F7EBCFEFEFFFEFEC0F96
:1023E000FD1FE00FF11F2081FE01E00FF11F308182
:1023F0002327322723279827892798272817390743
:1024000049F6E09160038981E813C4CF9A81ABE07B
:10241000B1E022E131E08D91891709F4D5C02A1786
:102420003B07C9F781E02296EFAF22979058239699
:102430009FAF239724968FAF249763E0CE018F5BE5
:102440009F4F0E944A03A6CF6D8170E0762F6627CA
:102450004E81640F711D20916C0330916D03923099
:1024600031F0913099F520916A0330916B0348E087
:1024700061157105E1F146171706C8F14B81A42FCC
:10248000B0E0BA2FAA274C814A0F5B2F511D460F8F
:10249000571F2417350708F4ACC06B8170E0762F06
:1024A00066279C81690F711D833009F45AC008F5B5
:1024B000813009F449C0823009F06CCF2091640367
:1024C000309165034E8182E090E045C020916E031B
:1024D00030916F03933049F030E020E040E09430D9
:1024E00039F6209170033091710349E1C1CF83E047
:1024F0009ACF853009F445C0E8F1863009F04ACF1B
:1025000040916603509167032D813E813227232736
:1025100032272296EFAF229723968FAF23972496E8
:102520007FAF249725966FAF259726963FAF2697C6
:1025300027962FAF2797660F771FFA01E60FF71F31
:102540003183208366E07ACF209162033091630368
:102550004E8181E090E00E94AD03892B09F01ACFF3
:10256000B2CE20916603309167034E8183E00E94D2
:10257000EF03F3CF20916803309169034E8184E02B
:10258000F6CF40916203509163032D813E81322743
:10259000232732272296EFAF229723968FAF2397D8
:1025A00024967FAF249725966FAF259726963FAF49
:1025B000269727962FAF2797660F771F640F751FF3
:1025C000DB012D933C93BECF963009F466CF953056
:1025D00009F03ACF2B8130E0322F22274C81240F93
:1025E000311D40916A0350916B032417350708F49D
:1025F00054CF82E018CF1F920F920FB60F92112482
:102600002F933F938F939F93AF93BF9380917C02BF
:1026100090917D02A0917E02B0917F0230917B0269
:1026200023E0230F2D3758F50196A11DB11D2093EE
:102630007B0280937C0290937D02A0937E02B093F4
:102640007F028091800290918102A0918202B091DC
:1026500083020196A11DB11D809380029093810297
:10266000A0938202B0938302BF91AF919F918F910B
:102670003F912F910F900FBE0F901F90189526E855
:10268000230F0296A11DB11DD2CF1F920F920FB63C
:102690000F9211242F933F934F935F936F937F93E8
:1026A0008F939F93AF93BF93EF93FF9383E992E050
:1026B0000E94C204FF91EF91BF91AF919F918F91C2
:1026C0007F916F915F914F913F912F910F900FBE2E
:1026D0000F901F9018951F920F920FB60F92112412
:1026E0002F938F939F93EF93FF93E091A302F09129
:1026F000A4028081E091A902F091AA0282FD1BC090
:1027000090818091AC028F5F8F732091AD02821710
:1027100041F0E091AC02F0E0ED56FD4F958F8093D3
:10272000AC02FF91EF919F918F912F910F900FBE6F
:102730000F901F9018958081F4CF1F920F920FB6C3
:102740000F9211240F900FBE0F901F9018950F93AA
:102750001F93CF93DF93EC0188819981009759F003
:102760002A813B812617370730F081E0DF91CF9136
:102770001F910F9108958B016F5F7F4F0E949D1CE9
:10278000009759F0998388831B830A832C813D81AC
:10279000232B59F7FC011082E8CF80E0E7CFCF93DD
:1027A000DF93EC011B861A861D861C861F861E86FB
:1027B00070E060E00A960E94A7132A853B8581118C
:1027C00017C02115310519F0C9010E94141C1B8680
:1027D0001A861F861E861D861C861D8A1C8A1F8AD5
:1027E0001E8A198E188E1B8A1A8ADF91CF9108953E
:1027F0001F861E866EE371E0C9010E94631DEDCF46
:10280000EF92FF920F931F93CF93DF93EC017B0125
:10281000FB0101900020E9F731978F01061B170B90
:10282000B8010E94A71328813981811113C0211595
:10283000310519F0C9010E94141C198218821D82E9
:102840001C821B821A82DF91CF911F910F91FF9002
:10285000EF9008951D830C83B701C901DF91CF91DB
:102860001F910F91FF90EF900C94631D3F924F9238
:102870005F926F927F928F929F92AF92BF92CF9210
:10288000DF92EF92FF920F931F93CF93DF93EC01B0
:102890002AE131E0FC0121933193CF010E94CF1353
:1028A000CE014C960E94CF13CE01C6960E94CF1344
:1028B0004E01F0E58F0E911CC4010E94CF135E0102
:1028C0008AE6A80EB11CC5010E94CF136E01E4E890
:1028D000CE0ED11CC6010E94CF137E01FEE9EF0E81
:1028E000F11CC7010E94CF133E0188EB680E711CDA
:1028F000C3010E94CF132E01E2ED4E0E511CC20106
:102900000E94CF1360E083E00E94C20260E08AE090
:102910000E94C20260E08BE00E94C20260E08DE093
:102920000E94C20261E084E00E94C20261E087E08E
:102930000E94C20261E085E00E94C20261E086E07E
:102940000E94C20260E082E00E94C20283E08A83A9
:102950001C821B821E821D82332433943F8219867F
:10296000188669EE71E0CE010C960E9400141B8A55
:102970001A8A8AE08C8F1E8E1D8E18A21F8E39A295
:102980001BA21AA261EF71E0CE0186960E9400148C
:102990001DA61CA68BE08EAB01E010E018AF0FABBC
:1029A0001AAF09AF3BAE1DAE1CAE69EF71E0CE01B0
:1029B000805C9F4F0E940014FE01EA5BFF4F118272
:1029C00010828DE0F401808331961182108232965C
:1029D000118210823296308231961182108260E02C
:1029E00072E0CE01865A9F4F0E940014FE01E05A09
:1029F000FF4F1182108281E1F5018083359630828C
:102A000031961183008364E072E0CE018C589F4FB1
:102A10000E94001482E1F60180833596308231965F
:102A2000118300836AE072E0CE0182579F4F0E94BB
:102A300000148EE0F7018083359630823196118341
:102A4000008360E172E0CE0188559F4F0E94001420
:102A500080E1F301808338968FEF9FEF918380832D
:102A60003397308231961183008367E172E0CE01A3
:102A70008E539F4F0E94001483E1F20180833596AC
:102A800030823196118300836EE172E0CE01845270
:102A90009F4F0E940014FE01E451FF4F84E08083A9
:102AA00031961082319687E080833196108231967C
:102AB00085E0808331961082319686E08083CD5008
:102AC000DF4F1882DF91CF911F910F91FF90EF9010
:102AD000DF90CF90BF90AF909F908F907F906F903E
:102AE0005F904F903F900895E3E9F2E013821282E5
:102AF00088EE93E0A0E0B0E084839583A683B7835B
:102B000084E291E09183808385EC90E095878487CF
:102B100084EC90E09787868780EC90E0918B808BA7
:102B200081EC90E0938B828B82EC90E0958B848B90
:102B300086EC90E0978B868B118E128E138E148EFE
:102B400084E695E00E94361486E893E00E943614ED
:102B5000A6E8B3E086E391E011969C938E931092E1
:102B60007B0410927A0410928504109284041092CF
:102B7000870410928604109289041092880410929F
:102B800083041092820410929D0410929C0410926F
:102B90009F0410929E041092A1041092A00410921F
:102BA0009B0410929A041092B5041092B4041092EF
:102BB000B7041092B6041092B9041092B80410929F
:102BC000B3041092B2041092CD041092CC0410926F
:102BD000CF041092CE041092D1041092D00410921F
:102BE000CB041092CA041092E5041092E4041092EF
:102BF000E7041092E6041092E9041092E80410929F
:102C0000E3041092E2041092FD041092FC0410926E
:102C1000FF041092FE04109201051092000510921C
:102C2000FB041092FA0410921505109214051092EC
:102C3000170510921605109219051092180510929A
:102C400013051092120510922D0510922C0510926A
:102C50002F0510922E05109231051092300510921A
:102C60002B0510922A0510924505109244051092EA
:102C7000470510924605109249051092480510929A
:102C800043051092420588E893E090937D04809379
:102C90007C04E8E5F3E0F0938104E093800413966C
:102CA0008D919C9114979183808382EA93E0909315
:102CB0009504809394048AE593E09093990480931B
:102CC00098045D968D919C915E97938382838CEBA3
:102CD00093E09093AD048093AC048CE593E09093E3
:102CE000B1048093B004D7968D919C919583848391
:102CF00086ED93E09093C5048093C4041092DB03A7
:102D0000A8E4B3E015961C921E9214978EE593E00A
:102D10009093C9048093C8048091D7039091D803FD
:102D20009783868383E090E090933F0380933E03F4
:102D300080EF93E09093DD048093DC0480E393E0E4
:102D40009093E1048093E0048AE094E09093F5048A
:102D50008093F40482E393E09093F9048093F80461
:102D600084E294E090930D0580930C0584E393E056
:102D700090931105809310058EE394E090932505C0
:102D80008093240586E393E090932905809328059A
:102D900086E891E0909333058093320588E594E0CE
:102DA00090933D0580933C0588E393E09093410523
:102DB0008093400582E794E09093550580935405F5
:102DC000B0935705A093560584E794E09093590576
:102DD000809358058AE493E090935B0580935A05AD
:102DE00082E593E090935F0580935E051B961C92AD
:102DF0001E921A9784E593E0909363058093620591
:102E00001D961C921E921C97EEE7F3E0138212822D
:102E1000158214821782168211821082E6E7F3E08F
:102E200013821282158214821782168211821082F6
:102E3000E0E6F3E013821282158214821782168272
:102E400011861086138612861586148617861686B6
:102E5000118A108A11821082128A138A148A158AA2
:102E60000895789484B5826084BD84B5816084BD02
:102E700085B5826085BD85B5816085BD80916E0018
:102E8000816080936E001092810080918100826049
:102E90008093810080918100816080938100809186
:102EA00080008160809380008091B1008460809375
:102EB000B1008091B00081608093B00080917A0071
:102EC000846080937A0080917A00826080937A0097
:102ED00080917A00816080937A0080917A00806886
:102EE00080937A001092C10083E992E0909385026A
:102EF0008093840288E493E0909363038093620359
:102F000088E090E090936B0380936A0388E593E0F8
:102F1000909365038093640384E090E090936D0345
:102F200080936C038CE393E0909367038093660334
:102F300086E090E090936F0380936E0320E333E08C
:102F40003093690320936803909371038093700317
:102F500081E0809360038CE080936103E091A302A1
:102F6000F091A40282E08083E0919F02F091A002A0
:102F70001082E091A102F091A20280E18083109280
:102F8000AB02E091A702F091A80286E08083E09175
:102F9000A502F091A602808180618083E091A50264
:102FA000F091A602808188608083E091A502F09173
:102FB000A602808180688083E091A502F091A6023C
:102FC00080818F7D80838091C20086608093C20063
:102FD00061E08CE00E94C20260E08CE00E949402FA
:102FE0008FE291E0A0E0B0E08093720390937303CE
:102FF000A0937403B093750390E080E00E94EE0DFF
:1030000090E0009711F481E190E090933D0380936C
:103010003C0381E090E00E94EE0D90E090934D0320
:1030200080934C0382E090E00E94EE0DC82F83E075
:1030300090E00E94EE0D2C2F30E0322F2227820FDD
:10304000932F911D90933F0380933E0384E090E083
:103050000E94EE0D90E090934F0380934E0385E025
:1030600090E00E94EE0DC82F86E090E00E94EE0DE9
:103070002C2F30E0322F2227820F932F911D909317
:1030800041038093400387E090E00E94EE0DC82F3B
:1030900088E090E00E94EE0D2C2F30E0322F2227A6
:1030A000820F932F911D909343038093420389E0F5
:1030B00090E00E94EE0D90E09093510380935003B6
:1030C0008AE090E00E94EE0DC82F8BE090E00E9415
:1030D000EE0D2C2F30E0322F2227820F932F911DDF
:1030E00090934503809344030E94830D0E94F00D4A
:1030F0008BE497E00E94790B8DE391E10E94790BBC
:103100008FE898E00E94790B81E492E00E94950795
:1031100083E992E00E944C0574E6E72EF12CE3E08F
:10312000CE2ED12CF0E0AF2EF0E0BF2E0E9438045E
:1031300000917702109178022091790230917A0201
:10314000601B710B820B930B6A3071058105910531
:1031500008F44AC00E9438046093770270937802A2
:103160008093790290937A02809175029091760211
:103170000196B7010E94151B909376028093750209
:10318000C0E08091780390917903C8171906E4F4A0
:10319000E0917A03F0917B030081118180E0309708
:1031A00051F46FE371E086E793E00E94B907F801FC
:1031B0000995CF5FE6CFC817D1F30280F381E02DE8
:1031C000008111818F5FF7CF809175029091760217
:1031D000B6010E94151B892B39F48091460390910A
:1031E000470399270E946C06A114B10409F49ECFED
:1031F0000E94AE04882309F499CF0E94000096CF64
:1032000086E793E00E948A0C8EE793E00E948A0C86
:1032100086E893E00E94F00C84E695E00C94B30CF1
:10322000E89409C097FB3EF4909580957095619560
:103230007F4F8F4F9F4F9923A9F0F92F96E9BB2716
:103240009395F695879577956795B795F111F8CF92
:10325000FAF4BB0F11F460FF1BC06F5F7F4F8F4FFD
:103260009F4F16C0882311F096E911C0772321F0F3
:103270009EE8872F762F05C0662371F096E8862F8B
:1032800070E060E02AF09A95660F771F881FDAF7E2
:10329000880F9695879597F908950E9460190C9468
:1032A000D1190E94C31938F00E94CA1920F0952341
:1032B00011F00C94BA190C94C01911240C94051A2D
:1032C0000E94E21970F3959FC1F3950F50E0551FCE
:1032D000629FF001729FBB27F00DB11D639FAA276B
:1032E000F00DB11DAA1F649F6627B00DA11D661FBA
:1032F000829F2227B00DA11D621F739FB00DA11DDB
:10330000621F839FA00D611D221F749F3327A00D94
:10331000611D231F849F600D211D822F762F6A2F30
:1033200011249F5750409AF0F1F088234AF0EE0F95
:10333000FF1FBB1F661F771F881F91505040A9F7C2
:103340009E3F510580F00C94BA190C94051A5F3F0A
:10335000E4F3983ED4F3869577956795B795F795FE
:10336000E7959F5FC1F7FE2B880F911D9695879576
:1033700097F9089597F99F6780E870E060E00895F5
:103380009FEF80EC089500240A941616170618067D
:103390000906089500240A94121613061406050659
:1033A0000895092E0394000C11F4882352F0BB0FEA
:1033B00040F4BF2B11F460FF04C06F5F7F4F8F4F4D
:1033C0009F4F089557FD9058440F551F59F05F3F88
:1033D00071F04795880F97FB991F61F09F3F79F037
:1033E00087950895121613061406551FF2CF4695B9
:1033F000F1DF08C0161617061806991FF1CF86953B
:103400007105610508940895E894BB27662777271E
:10341000CB0197F90895F999FECF92BD81BDF89A35
:10342000992780B50895262FF999FECF1FBA92BD2E
:1034300081BD20BD0FB6F894FA9AF99A0FBE019695
:1034400008950E94631AA59F900DB49F900DA49FAC
:10345000800D911D112408952F923F924F925F92FB
:103460006F927F928F929F92AF92BF92CF92DF9294
:10347000EF92FF920F931F93CF93DF93CDB7DEB7F9
:10348000CA1BDB0B0FB6F894DEBF0FBECDBF09948D
:103490002A88398848885F846E847D848C849B84E4
:1034A000AA84B984C884DF80EE80FD800C811B81F2
:1034B000AA81B981CE0FD11D0FB6F894DEBF0FBE21
:1034C000CDBFED010895A29FB001B39FC001A39F9E
:1034D000700D811D1124911DB29F700D811D11244D
:1034E000911D08955058BB27AA270E948A1A0C9450
:1034F000D1190E94C31938F00E94CA1920F039F47A
:103500009F3F19F426F40C94C0190EF4E095E7FBE4
:103510000C94BA19E92F0E94E21958F3BA176207FE
:1035200073078407950720F079F4A6F50C94041A24
:103530000EF4E0950B2EBA2FA02D0B01B9019001CE
:103540000C01CA01A0011124FF27591B99F0593F12
:1035500050F4503E68F11A16F040A22F232F342F5A
:103560004427585FF3CF469537952795A795F040A8
:103570005395C9F77EF41F16BA0B620B730B840BBD
:10358000BAF09150A1F0FF0FBB1F661F771F881F75
:10359000C2F70EC0BA0F621F731F841F48F48795CD
:1035A00077956795B795F7959E3F08F0B0CF9395BF
:1035B000880F08F09927EE0F9795879508950E9438
:1035C000E61A6894B1110C94051A08950E94EA193C
:1035D00088F09F5798F0B92F9927B751B0F0E1F0D4
:1035E000660F771F881F991F1AF0BA95C9F714C084
:1035F000B13091F00E94041AB1E008950C94041ABD
:10360000672F782F8827B85F39F0B93FCCF38695BC
:1036100077956795B395D9F73EF490958095709519
:1036200061957F4F8F4F9F4F0895AA1BBB1B51E1A0
:1036300007C0AA1FBB1FA617B70710F0A61BB70B22
:10364000881F991F5A95A9F780959095BC01CD01C7
:103650000895052E97FB1EF400940E94401B57FD11
:1036600007D00E94561B07FC03D04EF40C94401B5D
:1036700050954095309521953F4F4F4F5F4F08959E
:1036800090958095709561957F4F8F4F9F4F0895CE
:10369000EE0FFF1F0590F491E02D0994B7FF0C94F5
:1036A000211A0E94211A821B930B0895A1E21A2E5F
:1036B000AA1BBB1BFD010DC0AA1FBB1FEE1FFF1FD6
:1036C000A217B307E407F50720F0A21BB30BE40B26
:1036D000F50B661F771F881F991F1A9469F760956D
:1036E0007095809590959B01AC01BD01CF01089527
:1036F0000F931F93CF93DF938230910510F482E0F4
:1037000090E0E0915A06F0915B0630E020E0B0E0F6
:10371000A0E0309799F42115310509F44AC0281B1F
:10372000390B24303105D8F58A819B8161157105EB
:1037300089F1FB0193838283FE0111C04081518195
:103740000281138148175907E0F04817590799F487
:10375000109761F012960C93129713961C93329661
:10376000CF01DF91CF911F910F91089500935A06D9
:1037700010935B06F4CF2115310551F04217530722
:1037800038F0A901DB019A01BD01DF01F801C1CFC9
:10379000EF01F9CF90935B0680935A06CDCFFE01DF
:1037A000E20FF31F819391932250310939832883CB
:1037B000D7CF2091580630915906232B41F4209100
:1037C0000501309106013093590620935806209147
:1037D0000301309104012115310541F42DB73EB7A5
:1037E0004091070150910801241B350BE0915806C8
:1037F000F0915906E217F307A0F42E1B3F0B281790
:10380000390778F0AC014E5F5F4F2417350748F059
:103810004E0F5F1F50935906409358068193919322
:103820009FCFF0E0E0E09CCFCF93DF930097E9F0EB
:10383000FC01329713821282A0915A06B0915B0666
:10384000ED0130E020E01097A1F420813181820F5A
:10385000931F20915806309159062817390709F00F
:1038600061C0F0935906E0935806DF91CF91089517
:10387000EA01CE17DF07E8F54A815B819E01411519
:103880005105B1F7E901FB83EA8349915991C40FCE
:10389000D51FEC17FD0761F4808191810296840F9A
:1038A000951FE90199838883828193819B838A8311
:1038B000F0E0E0E012968D919C9113970097B9F596
:1038C0002D913C911197CD010296820F931F20916B
:1038D0005806309159062817390739F6309751F5AF
:1038E00010925B0610925A06B0935906A0935806A0
:1038F000BCCFD383C28340815181840F951FC817E9
:10390000D90761F44E5F5F4F88819981480F591F35
:10391000518340838A819B81938382832115310562
:1039200009F0B0CFF0935B06E0935A069ECFFD01FD
:10393000DC01C0CF13821282D7CFB0E0A0E0E3EA6F
:10394000FCE10C942E1A8C01009751F4CB010E94DB
:10395000781B8C01C801CDB7DEB7E0E10C944A1AA0
:10396000FC01E60FF71F9C0122503109E217F30713
:1039700008F49DC0D901CD91DC911197C617D707E6
:1039800098F0C530D10530F3CE010497861797071C
:1039900008F3C61BD70B2297C193D1936D937C93E9
:1039A000CF010E94141CD6CF5B01AC1ABD0A4C019A
:1039B0008C0E9D1EA0915A06B0915B06512C412C95
:1039C000F12CE12C109731F5809158069091590611
:1039D0008815990509F05CC04616570608F058C0CE
:1039E0008091030190910401009741F48DB79EB737
:1039F0004091070150910801841B950BE817F907C6
:103A000008F055C0F0935906E0935806F901718308
:103A10006083A0CF8D919C91119712966C90129714
:103A200013967C901397A815B90559F56C0142E0DF
:103A3000C40ED11CCA14DB0420F1AC014A195B0985
:103A4000DA011296159780F0628273825183408367
:103A5000D9016D937C93E114F10471F0D7011396B1
:103A6000FC93EE93129776CF22968C0F9D1FF9014F
:103A700091838083F301EFCFF0935B06E0935A06C6
:103A800069CF4816590608F42C017D01D3019ACF5D
:103A9000CB010E94781B7C01009749F0AE01B80170
:103AA0000E945A1DC8010E94141C870153CF10E0C8
:103AB00000E050CFFB01DC0102C001900D924150AB
:103AC0005040D8F70895FB01DC0101900D920020D1
:103AD000E1F70895AEE0B0E0E0E7FDE10C943A1ABA
:103AE0000D891E8986E08C831A8309838FEF9FE7F7
:103AF0009E838D83AE01475E5F4F6F89788DCE01C7
:103B000001960E948D1D2F813885020F131FF80129
:103B100010822E96E4E00C94561AABE0B0E0E3E994
:103B2000FDE10C942C1A7C013B018A01FC011782F7
:103B30001682838181FFC8C1CE0101965C01F70125
:103B40009381F30193FD859193FF81913F01882338
:103B500009F453C1853239F493FD859193FF819126
:103B60003F01853229F4B70190E00E947D1FE7CF25
:103B7000912C212C312CFFE1F31538F08B3211F10F
:103B800090F4803209F1833229F137FC3CC020EDFA
:103B9000280F2A3050F536FE20C08AE0989E200D6E
:103BA0001124922E06C08D3291F0803371F7689403
:103BB00030F8F30193FD859193FF81913F018111CD
:103BC000DACF21C0689431F8689432F8F2CF689463
:103BD00033F8EFCF689434F8ECCFEAE02E9E200D56
:103BE0001124222E689435F8E4CF8E3229F436FC65
:103BF00004C1689436F8DDCF8C3619F4689437F830
:103C0000D8CF8836B1F2982F9F7D95549330E0F04D
:103C10008336A1F18337C1F1833509F063C02801F0
:103C2000F2E04F0E511CF801C080D180692D70E088
:103C300036FC02C06FEF7FEFC6010E94671F4C0188
:103C4000689437F882010AC00C5F1F4FFFE3F983C5
:103C500088248394912C6501E89437F833FE2DC0B5
:103C6000522C8114910471F5552009F468CFB701E5
:103C700080E290E00E947D1F5A94F6CFF801808187
:103C800089830E5F1F4FE4CF2801F2E04F0E511CD5
:103C9000F801C080D180692D70E036FC02C06FEF62
:103CA0007FEFC6010E94721F4C018201D5CFB70180
:103CB00080E290E00E947D1F2A942814190409F0E4
:103CC000B0F7CECFF60137FC859137FE81916F01B9
:103CD000B70190E00E947D1F51105A94F1E08F1AB5
:103CE0009108BFCF843619F0893609F077C0F80102
:103CF00037FE6BC060817181828193810C5F1F4FA1
:103D0000F32DFF763F2E97FF09C090958095709513
:103D100061957F4F8F4F9F4F689437F82AE030E0CE
:103D2000A5010E94AD1FC82ECA188C2C432C36FE4C
:103D30000CC0E89440F8C91440F434FE05C032FCCD
:103D400003C0F32DFE7E4F2E892C44FE95C0FE014C
:103D5000EC0DF11D8081803309F087C0242D297E70
:103D6000422E842D8870582E43FC95C040FE8FC093
:103D70009C2C821418F42C0C922C981844FE91C0A0
:103D8000B70180E390E00E947D1F42FE09C088E7F2
:103D900090E041FE02C088E590E0B7010E947D1FDF
:103DA000C91408F48AC0CA94D12C9FEFC91AD90A41
:103DB000CA0CDB1CF60182916F01B70190E00E94F2
:103DC0007D1FAC14BD04B1F74FCF60817181072E08
:103DD000000C880B990B0E5F1F4F92CFD32CE894E9
:103DE000D4F82AE030E0853739F1232D297FD22E0F
:103DF0008F3601F148F48835A9F0F7018681978163
:103E00002B96E2E10C94481A803749F08837A9F7DD
:103E1000D4FE02C06894D2F820E130E00DC068946E
:103E2000D4F8F6CF34FE03C0822F8660D82E20E16E
:103E300032E002C028E030E0F801D7FE0FC0608118
:103E40007181828193810C5F1F4FA5010E94AD1F7C
:103E5000C82ECA183D2CE89437F867CF608171816D
:103E600090E080E00E5F1F4FF0CF42FC02C08394D1
:103E700078CF8394839475CF842D867809F471CF9D
:103E8000F6CFB70180E290E00E947D1F83948214F8
:103E9000C0F3512C73CF522C5818821408F46ECFF3
:103EA000F8CF842D867809F47BCF8BE241FE80E247
:103EB00047FC8DE2B70190E071CFB70180E390E05D
:103EC0000E947D1F9A946CCF8FEF9FEF99CFFC01DA
:103ED0000590615070400110D8F7809590958E0F35
:103EE0009F1F0895FC016150704001900110D8F7A8
:103EF000809590958E0F9F1F08950F931F93CF93DA
:103F0000DF93182F092FEB018B8181FD09C01FEF73
:103F10000FEF812F902FDF91CF911F910F91089577
:103F200082FF14C02E813F818C819D812817390723
:103F30003CF4E881F981CF0101969983888310834D
:103F40008E819F8101969F838E83E3CFE885F985DB
:103F5000812F0995892BA1F3DACFFA01AA272830FE
:103F600051F1203181F1E8946F936E7F6E5F7F4F46
:103F70008F4F9F4FAF4FB1E03ED0B4E03CD0670FC2
:103F8000781F891F9A1FA11D680F791F8A1F911D15
:103F9000A11D6A0F711D811D911DA11D20D009F465
:103FA00068943F912AE0269F11243019305D3193A7
:103FB000DEF6CF010895462F4770405D4193B3E090
:103FC0000FD0C9F7F6CF462F4F70405D4A3318F037
:103FD000495D31FD4052419302D0A9F7EACFB4E0E8
:103FE000A6959795879577956795BA95C9F70097A0
:103FF0006105710508959B01AC010A2E0694579541
:10400000479537952795BA95C9F7620F731F841F97
:10401000951FA01D089511E0CBE5D1E004C0FE017D
:104020000E94481B2196CC35D107C9F7F894FFCFE1
:10403000E8034100005C068000201C010203040527
:1040400006100100050000000000B30CE60C5B0C3C
:1040500000000000E404440471044C05A204800440
:10406000940400000000F00C290D110C0D0A005101
:10407000554555453A2063616E2774207065656B20
:10408000206974656D2066726F6D20717565756548
:104090003A20717565756520697320656D70747956
:1040A0002E0051554555453A20696E73756666690F
:1040B0006369656E74206D656D6F727920746F2011
:1040C0006372656174652061206E6577206E6F6430
:1040D000652E00203A20496E746572727570746F97
:1040E00072202D2D3E200051554555453A206361E3
:1040F0006E277420706F70206974656D2066726F12
:104100006D2071756575653A2071756575652069F5
:104110007320656D7074792E00424F54D34E203158
:1041200000424F54D34E203200502E204F70740066
:1041300050495200504F54203100504F542032000B
:1041400050485F52455300532E54454D500050483F
:104150005F54544F520056616C6F72204D425F5451
:0C4160004D505F5049523A202564000089
:00000001FF
